{
  "contractName": "Escrow",
  "abi": [
    {
      "inputs": [],
      "stateMutability": "nonpayable",
      "type": "constructor"
    },
    {
      "inputs": [
        {
          "internalType": "address",
          "name": "owner",
          "type": "address"
        }
      ],
      "name": "OwnableInvalidOwner",
      "type": "error"
    },
    {
      "inputs": [
        {
          "internalType": "address",
          "name": "account",
          "type": "address"
        }
      ],
      "name": "OwnableUnauthorizedAccount",
      "type": "error"
    },
    {
      "inputs": [],
      "name": "ReentrancyGuardReentrantCall",
      "type": "error"
    },
    {
      "anonymous": false,
      "inputs": [
        {
          "indexed": true,
          "internalType": "address",
          "name": "previousOwner",
          "type": "address"
        },
        {
          "indexed": true,
          "internalType": "address",
          "name": "newOwner",
          "type": "address"
        }
      ],
      "name": "OwnershipTransferred",
      "type": "event"
    },
    {
      "inputs": [],
      "name": "depositCount",
      "outputs": [
        {
          "internalType": "uint256",
          "name": "",
          "type": "uint256"
        }
      ],
      "stateMutability": "view",
      "type": "function"
    },
    {
      "inputs": [
        {
          "internalType": "uint256",
          "name": "",
          "type": "uint256"
        }
      ],
      "name": "deposits",
      "outputs": [
        {
          "internalType": "uint256",
          "name": "amount",
          "type": "uint256"
        },
        {
          "internalType": "address",
          "name": "payer",
          "type": "address"
        },
        {
          "internalType": "address",
          "name": "payee",
          "type": "address"
        },
        {
          "internalType": "uint256",
          "name": "releaseTime",
          "type": "uint256"
        }
      ],
      "stateMutability": "view",
      "type": "function"
    },
    {
      "inputs": [],
      "name": "owner",
      "outputs": [
        {
          "internalType": "address",
          "name": "",
          "type": "address"
        }
      ],
      "stateMutability": "view",
      "type": "function"
    },
    {
      "inputs": [],
      "name": "renounceOwnership",
      "outputs": [],
      "stateMutability": "nonpayable",
      "type": "function"
    },
    {
      "inputs": [
        {
          "internalType": "address",
          "name": "newOwner",
          "type": "address"
        }
      ],
      "name": "transferOwnership",
      "outputs": [],
      "stateMutability": "nonpayable",
      "type": "function"
    },
    {
      "inputs": [
        {
          "internalType": "address",
          "name": "_payee",
          "type": "address"
        },
        {
          "internalType": "uint256",
          "name": "_releaseTime",
          "type": "uint256"
        }
      ],
      "name": "createDeposit",
      "outputs": [],
      "stateMutability": "payable",
      "type": "function"
    },
    {
      "inputs": [
        {
          "internalType": "uint256",
          "name": "_depositId",
          "type": "uint256"
        }
      ],
      "name": "releaseFunds",
      "outputs": [],
      "stateMutability": "nonpayable",
      "type": "function"
    }
  ],
  "bytecode": "0x608060405234801561000f575f80fd5b50335f73ffffffffffffffffffffffffffffffffffffffff168173ffffffffffffffffffffffffffffffffffffffff1603610081575f6040517f1e4fbdf7000000000000000000000000000000000000000000000000000000008152600401610078919061019d565b60405180910390fd5b6100908161009d60201b60201c565b50600180819055506101b6565b5f805f9054906101000a900473ffffffffffffffffffffffffffffffffffffffff169050815f806101000a81548173ffffffffffffffffffffffffffffffffffffffff021916908373ffffffffffffffffffffffffffffffffffffffff1602179055508173ffffffffffffffffffffffffffffffffffffffff168173ffffffffffffffffffffffffffffffffffffffff167f8be0079c531659141344cd1fd0a4f28419497f9722a3daafe3b4186f6b6457e060405160405180910390a35050565b5f73ffffffffffffffffffffffffffffffffffffffff82169050919050565b5f6101878261015e565b9050919050565b6101978161017d565b82525050565b5f6020820190506101b05f83018461018e565b92915050565b610bff806101c35f395ff3fe60806040526004361061006f575f3560e01c8063715018a61161004d578063715018a6146100e15780638da5cb5b146100f7578063b02c43d014610121578063f2fde38b146101605761006f565b80632dfdf0b514610073578063442e501d1461009d5780634d68282f146100b9575b5f80fd5b34801561007e575f80fd5b50610087610188565b6040516100949190610793565b60405180910390f35b6100b760048036038101906100b29190610834565b61018e565b005b3480156100c4575f80fd5b506100df60048036038101906100da9190610872565b61033e565b005b3480156100ec575f80fd5b506100f56104b5565b005b348015610102575f80fd5b5061010b6104c8565b60405161011891906108ac565b60405180910390f35b34801561012c575f80fd5b5061014760048036038101906101429190610872565b6104ef565b60405161015794939291906108c5565b60405180910390f35b34801561016b575f80fd5b5061018660048036038101906101819190610908565b610559565b005b60035481565b6101966105dd565b5f34116101d8576040517f08c379a00000000000000000000000000000000000000000000000000000000081526004016101cf906109b3565b60405180910390fd5b42811161021a576040517f08c379a000000000000000000000000000000000000000000000000000000000815260040161021190610a41565b60405180910390fd5b60405180608001604052803481526020013373ffffffffffffffffffffffffffffffffffffffff1681526020018373ffffffffffffffffffffffffffffffffffffffff1681526020018281525060025f60035481526020019081526020015f205f820151815f01556020820151816001015f6101000a81548173ffffffffffffffffffffffffffffffffffffffff021916908373ffffffffffffffffffffffffffffffffffffffff1602179055506040820151816002015f6101000a81548173ffffffffffffffffffffffffffffffffffffffff021916908373ffffffffffffffffffffffffffffffffffffffff1602179055506060820151816003015590505060035f81548092919061032d90610a8c565b919050555061033a610623565b5050565b6103466105dd565b5f60025f8381526020019081526020015f20905080600301544210156103a1576040517f08c379a000000000000000000000000000000000000000000000000000000000815260040161039890610b1d565b60405180910390fd5b806002015f9054906101000a900473ffffffffffffffffffffffffffffffffffffffff1673ffffffffffffffffffffffffffffffffffffffff163373ffffffffffffffffffffffffffffffffffffffff1614610432576040517f08c379a000000000000000000000000000000000000000000000000000000000815260040161042990610bab565b60405180910390fd5b5f815f015490505f825f0181905550816002015f9054906101000a900473ffffffffffffffffffffffffffffffffffffffff1673ffffffffffffffffffffffffffffffffffffffff166108fc8290811502906040515f60405180830381858888f193505050501580156104a7573d5f803e3d5ffd5b5050506104b2610623565b50565b6104bd61062c565b6104c65f6106b3565b565b5f805f9054906101000a900473ffffffffffffffffffffffffffffffffffffffff16905090565b6002602052805f5260405f205f91509050805f015490806001015f9054906101000a900473ffffffffffffffffffffffffffffffffffffffff1690806002015f9054906101000a900473ffffffffffffffffffffffffffffffffffffffff16908060030154905084565b61056161062c565b5f73ffffffffffffffffffffffffffffffffffffffff168173ffffffffffffffffffffffffffffffffffffffff16036105d1575f6040517f1e4fbdf70000000000000000000000000000000000000000000000000000000081526004016105c891906108ac565b60405180910390fd5b6105da816106b3565b50565b600260015403610619576040517f3ee5aeb500000000000000000000000000000000000000000000000000000000815260040160405180910390fd5b6002600181905550565b60018081905550565b610634610774565b73ffffffffffffffffffffffffffffffffffffffff166106526104c8565b73ffffffffffffffffffffffffffffffffffffffff16146106b157610675610774565b6040517f118cdaa70000000000000000000000000000000000000000000000000000000081526004016106a891906108ac565b60405180910390fd5b565b5f805f9054906101000a900473ffffffffffffffffffffffffffffffffffffffff169050815f806101000a81548173ffffffffffffffffffffffffffffffffffffffff021916908373ffffffffffffffffffffffffffffffffffffffff1602179055508173ffffffffffffffffffffffffffffffffffffffff168173ffffffffffffffffffffffffffffffffffffffff167f8be0079c531659141344cd1fd0a4f28419497f9722a3daafe3b4186f6b6457e060405160405180910390a35050565b5f33905090565b5f819050919050565b61078d8161077b565b82525050565b5f6020820190506107a65f830184610784565b92915050565b5f80fd5b5f73ffffffffffffffffffffffffffffffffffffffff82169050919050565b5f6107d9826107b0565b9050919050565b6107e9816107cf565b81146107f3575f80fd5b50565b5f81359050610804816107e0565b92915050565b6108138161077b565b811461081d575f80fd5b50565b5f8135905061082e8161080a565b92915050565b5f806040838503121561084a576108496107ac565b5b5f610857858286016107f6565b925050602061086885828601610820565b9150509250929050565b5f60208284031215610887576108866107ac565b5b5f61089484828501610820565b91505092915050565b6108a6816107cf565b82525050565b5f6020820190506108bf5f83018461089d565b92915050565b5f6080820190506108d85f830187610784565b6108e5602083018661089d565b6108f2604083018561089d565b6108ff6060830184610784565b95945050505050565b5f6020828403121561091d5761091c6107ac565b5b5f61092a848285016107f6565b91505092915050565b5f82825260208201905092915050565b7f4465706f7369742076616c7565206d75737420626520677265617465722074685f8201527f616e207a65726f00000000000000000000000000000000000000000000000000602082015250565b5f61099d602783610933565b91506109a882610943565b604082019050919050565b5f6020820190508181035f8301526109ca81610991565b9050919050565b7f52656c656173652074696d65206d75737420626520696e2074686520667574755f8201527f7265000000000000000000000000000000000000000000000000000000000000602082015250565b5f610a2b602283610933565b9150610a36826109d1565b604082019050919050565b5f6020820190508181035f830152610a5881610a1f565b9050919050565b7f4e487b71000000000000000000000000000000000000000000000000000000005f52601160045260245ffd5b5f610a968261077b565b91507fffffffffffffffffffffffffffffffffffffffffffffffffffffffffffffffff8203610ac857610ac7610a5f565b5b600182019050919050565b7f46756e64732063616e6e6f742062652072656c656173656420796574000000005f82015250565b5f610b07601c83610933565b9150610b1282610ad3565b602082019050919050565b5f6020820190508181035f830152610b3481610afb565b9050919050565b7f4f6e6c79207468652070617965652063616e2072656c656173652074686520665f8201527f756e647300000000000000000000000000000000000000000000000000000000602082015250565b5f610b95602483610933565b9150610ba082610b3b565b604082019050919050565b5f6020820190508181035f830152610bc281610b89565b905091905056fea2646970667358221220635a23d8e8e18e4c230fae73d61cd9d8d1ed61181027e6684b95786412278e1964736f6c63430008150033",
  "immutableReferences": {},
  "source": "// SPDX-License-Identifier: MIT\r\npragma solidity ^0.8.21;\r\n\r\nimport \"@openzeppelin/contracts/utils/ReentrancyGuard.sol\";\r\n\r\nimport \"@openzeppelin/contracts/access/Ownable.sol\";\r\n\r\ncontract Escrow is Ownable, ReentrancyGuard {\r\n    constructor() Ownable(msg.sender){\r\n\r\n    }\r\n\r\n    struct Deposit {\r\n        uint256 amount;\r\n        address payer;\r\n        address payee;\r\n        uint256 releaseTime;\r\n    }\r\n\r\n    mapping(uint256 => Deposit) public deposits;\r\n    uint256 public depositCount;\r\n\r\n    function createDeposit(address _payee, uint256 _releaseTime) external payable nonReentrant {\r\n        require(msg.value > 0, \"Deposit value must be greater than zero\");\r\n        require(_releaseTime > block.timestamp, \"Release time must be in the future\");\r\n\r\n        deposits[depositCount] = Deposit({\r\n            amount: msg.value,\r\n            payer: msg.sender,\r\n            payee: _payee,\r\n            releaseTime: _releaseTime\r\n        });\r\n\r\n        depositCount++;\r\n    }\r\n\r\n    function releaseFunds(uint256 _depositId) external nonReentrant {\r\n        Deposit storage deposit = deposits[_depositId];\r\n        require(block.timestamp >= deposit.releaseTime, \"Funds cannot be released yet\");\r\n        require(msg.sender == deposit.payee, \"Only the payee can release the funds\");\r\n\r\n        uint256 amount = deposit.amount;\r\n        deposit.amount = 0;\r\n        payable(deposit.payee).transfer(amount);\r\n    }\r\n}\r\n",
  "sourcePath": "C:\\Users\\ASUS\\Desktop\\awas\\awas\\contracts\\contract.sol",
  "compiler": {
    "name": "solc",
    "version": "0.8.21+commit.d9974bed.Emscripten.clang"
  },
  "schemaVersion": "3.4.16",
  "updatedAt": "2024-08-21T20:53:47.811Z",
  "devdoc": {
    "errors": {
      "OwnableInvalidOwner(address)": [
        {
          "details": "The owner is not a valid owner account. (eg. `address(0)`)"
        }
      ],
      "OwnableUnauthorizedAccount(address)": [
        {
          "details": "The caller account is not authorized to perform an operation."
        }
      ],
      "ReentrancyGuardReentrantCall()": [
        {
          "details": "Unauthorized reentrant call."
        }
      ]
    },
    "kind": "dev",
    "methods": {
      "owner()": {
        "details": "Returns the address of the current owner."
      },
      "renounceOwnership()": {
        "details": "Leaves the contract without owner. It will not be possible to call `onlyOwner` functions. Can only be called by the current owner. NOTE: Renouncing ownership will leave the contract without an owner, thereby disabling any functionality that is only available to the owner."
      },
      "transferOwnership(address)": {
        "details": "Transfers ownership of the contract to a new account (`newOwner`). Can only be called by the current owner."
      }
    },
    "version": 1
  },
  "userdoc": {
    "kind": "user",
    "methods": {},
    "version": 1
  }
}